{
  "_format": "hh-sol-artifact-1",
  "contractName": "SecondToken",
  "sourceName": "contracts/SecondToken.sol",
  "abi": [
    {
      "inputs": [
        {
          "internalType": "uint256",
          "name": "initialSupply",
          "type": "uint256"
        }
      ],
      "stateMutability": "nonpayable",
      "type": "constructor"
    },
    {
      "anonymous": false,
      "inputs": [
        {
          "indexed": true,
          "internalType": "address",
          "name": "owner",
          "type": "address"
        },
        {
          "indexed": true,
          "internalType": "address",
          "name": "spender",
          "type": "address"
        },
        {
          "indexed": false,
          "internalType": "uint256",
          "name": "value",
          "type": "uint256"
        }
      ],
      "name": "Approval",
      "type": "event"
    },
    {
      "anonymous": false,
      "inputs": [
        {
          "indexed": false,
          "internalType": "address",
          "name": "account",
          "type": "address"
        }
      ],
      "name": "Paused",
      "type": "event"
    },
    {
      "anonymous": false,
      "inputs": [
        {
          "indexed": true,
          "internalType": "bytes32",
          "name": "role",
          "type": "bytes32"
        },
        {
          "indexed": true,
          "internalType": "bytes32",
          "name": "previousAdminRole",
          "type": "bytes32"
        },
        {
          "indexed": true,
          "internalType": "bytes32",
          "name": "newAdminRole",
          "type": "bytes32"
        }
      ],
      "name": "RoleAdminChanged",
      "type": "event"
    },
    {
      "anonymous": false,
      "inputs": [
        {
          "indexed": true,
          "internalType": "bytes32",
          "name": "role",
          "type": "bytes32"
        },
        {
          "indexed": true,
          "internalType": "address",
          "name": "account",
          "type": "address"
        },
        {
          "indexed": true,
          "internalType": "address",
          "name": "sender",
          "type": "address"
        }
      ],
      "name": "RoleGranted",
      "type": "event"
    },
    {
      "anonymous": false,
      "inputs": [
        {
          "indexed": true,
          "internalType": "bytes32",
          "name": "role",
          "type": "bytes32"
        },
        {
          "indexed": true,
          "internalType": "address",
          "name": "account",
          "type": "address"
        },
        {
          "indexed": true,
          "internalType": "address",
          "name": "sender",
          "type": "address"
        }
      ],
      "name": "RoleRevoked",
      "type": "event"
    },
    {
      "anonymous": false,
      "inputs": [
        {
          "indexed": true,
          "internalType": "address",
          "name": "from",
          "type": "address"
        },
        {
          "indexed": true,
          "internalType": "address",
          "name": "to",
          "type": "address"
        },
        {
          "indexed": false,
          "internalType": "uint256",
          "name": "value",
          "type": "uint256"
        }
      ],
      "name": "Transfer",
      "type": "event"
    },
    {
      "anonymous": false,
      "inputs": [
        {
          "indexed": false,
          "internalType": "address",
          "name": "account",
          "type": "address"
        }
      ],
      "name": "Unpaused",
      "type": "event"
    },
    {
      "inputs": [],
      "name": "BURNER_ROLE",
      "outputs": [
        {
          "internalType": "bytes32",
          "name": "",
          "type": "bytes32"
        }
      ],
      "stateMutability": "view",
      "type": "function"
    },
    {
      "inputs": [],
      "name": "DEFAULT_ADMIN_ROLE",
      "outputs": [
        {
          "internalType": "bytes32",
          "name": "",
          "type": "bytes32"
        }
      ],
      "stateMutability": "view",
      "type": "function"
    },
    {
      "inputs": [],
      "name": "MINTER_ROLE",
      "outputs": [
        {
          "internalType": "bytes32",
          "name": "",
          "type": "bytes32"
        }
      ],
      "stateMutability": "view",
      "type": "function"
    },
    {
      "inputs": [],
      "name": "PAUSER_ROLE",
      "outputs": [
        {
          "internalType": "bytes32",
          "name": "",
          "type": "bytes32"
        }
      ],
      "stateMutability": "view",
      "type": "function"
    },
    {
      "inputs": [
        {
          "internalType": "address",
          "name": "owner",
          "type": "address"
        },
        {
          "internalType": "address",
          "name": "spender",
          "type": "address"
        }
      ],
      "name": "allowance",
      "outputs": [
        {
          "internalType": "uint256",
          "name": "",
          "type": "uint256"
        }
      ],
      "stateMutability": "view",
      "type": "function"
    },
    {
      "inputs": [
        {
          "internalType": "address",
          "name": "spender",
          "type": "address"
        },
        {
          "internalType": "uint256",
          "name": "amount",
          "type": "uint256"
        }
      ],
      "name": "approve",
      "outputs": [
        {
          "internalType": "bool",
          "name": "",
          "type": "bool"
        }
      ],
      "stateMutability": "nonpayable",
      "type": "function"
    },
    {
      "inputs": [
        {
          "internalType": "address",
          "name": "account",
          "type": "address"
        }
      ],
      "name": "balanceOf",
      "outputs": [
        {
          "internalType": "uint256",
          "name": "",
          "type": "uint256"
        }
      ],
      "stateMutability": "view",
      "type": "function"
    },
    {
      "inputs": [
        {
          "internalType": "uint256",
          "name": "amount",
          "type": "uint256"
        }
      ],
      "name": "burn",
      "outputs": [],
      "stateMutability": "nonpayable",
      "type": "function"
    },
    {
      "inputs": [
        {
          "internalType": "address",
          "name": "account",
          "type": "address"
        },
        {
          "internalType": "uint256",
          "name": "amount",
          "type": "uint256"
        }
      ],
      "name": "burnFrom",
      "outputs": [],
      "stateMutability": "nonpayable",
      "type": "function"
    },
    {
      "inputs": [],
      "name": "cap",
      "outputs": [
        {
          "internalType": "uint256",
          "name": "",
          "type": "uint256"
        }
      ],
      "stateMutability": "view",
      "type": "function"
    },
    {
      "inputs": [],
      "name": "decimals",
      "outputs": [
        {
          "internalType": "uint8",
          "name": "",
          "type": "uint8"
        }
      ],
      "stateMutability": "view",
      "type": "function"
    },
    {
      "inputs": [
        {
          "internalType": "address",
          "name": "spender",
          "type": "address"
        },
        {
          "internalType": "uint256",
          "name": "subtractedValue",
          "type": "uint256"
        }
      ],
      "name": "decreaseAllowance",
      "outputs": [
        {
          "internalType": "bool",
          "name": "",
          "type": "bool"
        }
      ],
      "stateMutability": "nonpayable",
      "type": "function"
    },
    {
      "inputs": [
        {
          "internalType": "bytes32",
          "name": "role",
          "type": "bytes32"
        }
      ],
      "name": "getRoleAdmin",
      "outputs": [
        {
          "internalType": "bytes32",
          "name": "",
          "type": "bytes32"
        }
      ],
      "stateMutability": "view",
      "type": "function"
    },
    {
      "inputs": [
        {
          "internalType": "bytes32",
          "name": "role",
          "type": "bytes32"
        },
        {
          "internalType": "address",
          "name": "account",
          "type": "address"
        }
      ],
      "name": "grantRole",
      "outputs": [],
      "stateMutability": "nonpayable",
      "type": "function"
    },
    {
      "inputs": [
        {
          "internalType": "bytes32",
          "name": "role",
          "type": "bytes32"
        },
        {
          "internalType": "address",
          "name": "account",
          "type": "address"
        }
      ],
      "name": "hasRole",
      "outputs": [
        {
          "internalType": "bool",
          "name": "",
          "type": "bool"
        }
      ],
      "stateMutability": "view",
      "type": "function"
    },
    {
      "inputs": [
        {
          "internalType": "address",
          "name": "spender",
          "type": "address"
        },
        {
          "internalType": "uint256",
          "name": "addedValue",
          "type": "uint256"
        }
      ],
      "name": "increaseAllowance",
      "outputs": [
        {
          "internalType": "bool",
          "name": "",
          "type": "bool"
        }
      ],
      "stateMutability": "nonpayable",
      "type": "function"
    },
    {
      "inputs": [
        {
          "internalType": "address",
          "name": "to",
          "type": "address"
        },
        {
          "internalType": "uint256",
          "name": "amount",
          "type": "uint256"
        }
      ],
      "name": "mint",
      "outputs": [],
      "stateMutability": "nonpayable",
      "type": "function"
    },
    {
      "inputs": [],
      "name": "name",
      "outputs": [
        {
          "internalType": "string",
          "name": "",
          "type": "string"
        }
      ],
      "stateMutability": "view",
      "type": "function"
    },
    {
      "inputs": [],
      "name": "pause",
      "outputs": [],
      "stateMutability": "nonpayable",
      "type": "function"
    },
    {
      "inputs": [],
      "name": "paused",
      "outputs": [
        {
          "internalType": "bool",
          "name": "",
          "type": "bool"
        }
      ],
      "stateMutability": "view",
      "type": "function"
    },
    {
      "inputs": [
        {
          "internalType": "bytes32",
          "name": "role",
          "type": "bytes32"
        },
        {
          "internalType": "address",
          "name": "account",
          "type": "address"
        }
      ],
      "name": "renounceRole",
      "outputs": [],
      "stateMutability": "nonpayable",
      "type": "function"
    },
    {
      "inputs": [
        {
          "internalType": "bytes32",
          "name": "role",
          "type": "bytes32"
        },
        {
          "internalType": "address",
          "name": "account",
          "type": "address"
        }
      ],
      "name": "revokeRole",
      "outputs": [],
      "stateMutability": "nonpayable",
      "type": "function"
    },
    {
      "inputs": [
        {
          "internalType": "bytes4",
          "name": "interfaceId",
          "type": "bytes4"
        }
      ],
      "name": "supportsInterface",
      "outputs": [
        {
          "internalType": "bool",
          "name": "",
          "type": "bool"
        }
      ],
      "stateMutability": "view",
      "type": "function"
    },
    {
      "inputs": [],
      "name": "symbol",
      "outputs": [
        {
          "internalType": "string",
          "name": "",
          "type": "string"
        }
      ],
      "stateMutability": "view",
      "type": "function"
    },
    {
      "inputs": [],
      "name": "totalSupply",
      "outputs": [
        {
          "internalType": "uint256",
          "name": "",
          "type": "uint256"
        }
      ],
      "stateMutability": "view",
      "type": "function"
    },
    {
      "inputs": [
        {
          "internalType": "address",
          "name": "to",
          "type": "address"
        },
        {
          "internalType": "uint256",
          "name": "amount",
          "type": "uint256"
        }
      ],
      "name": "transfer",
      "outputs": [
        {
          "internalType": "bool",
          "name": "",
          "type": "bool"
        }
      ],
      "stateMutability": "nonpayable",
      "type": "function"
    },
    {
      "inputs": [
        {
          "internalType": "address",
          "name": "from",
          "type": "address"
        },
        {
          "internalType": "address",
          "name": "to",
          "type": "address"
        },
        {
          "internalType": "uint256",
          "name": "amount",
          "type": "uint256"
        }
      ],
      "name": "transferFrom",
      "outputs": [
        {
          "internalType": "bool",
          "name": "",
          "type": "bool"
        }
      ],
      "stateMutability": "nonpayable",
      "type": "function"
    },
    {
      "inputs": [],
      "name": "unpause",
      "outputs": [],
      "stateMutability": "nonpayable",
      "type": "function"
    }
  ],
  "bytecode": "0x60a06040523480156200001157600080fd5b5060405162001afa38038062001afa833981016040819052620000349162000480565b60408051808201825260068152652a37b5b2b71960d11b602080830191825283518085019094526004808552632a27a59960e11b91850191909152825169021e19e0c9bab240000094926200008a9291620003da565b508051620000a0906005906020840190620003da565b50505060008111620000f95760405162461bcd60e51b815260206004820152601560248201527f45524332304361707065643a206361702069732030000000000000000000000060448201526064015b60405180910390fd5b6080526006805460ff1916905569021e19e0c9bab24000008110620001725760405162461bcd60e51b815260206004820152602860248201527f496e697469616c20737570706c792063616e6e6f74206265206269676765722060448201526707468616e206361760c41b6064820152608401620000f0565b6200018933826200019d60201b620007d11760201c565b6200019660003362000291565b50620004fb565b6001600160a01b038216620001f55760405162461bcd60e51b815260206004820152601f60248201527f45524332303a206d696e7420746f20746865207a65726f2061646472657373006044820152606401620000f0565b62000203600083836200029d565b806003600082825462000217919062000499565b90915550506001600160a01b038216600090815260016020526040812080548392906200024690849062000499565b90915550506040518181526001600160a01b038316906000907fddf252ad1be2c89b69c2b068fc378daa952ba7f163c4a11628f55a4df523b3ef9060200160405180910390a35b5050565b6200028d8282620002ba565b620002b58383836200035a60201b620008bc1760201c565b505050565b6000828152602081815260408083206001600160a01b038516845290915290205460ff166200028d576000828152602081815260408083206001600160a01b03851684529091529020805460ff19166001179055620003163390565b6001600160a01b0316816001600160a01b0316837f2f8788117e7eff1d82e926ec794901d17c78024a50270940304540a733656f0d60405160405180910390a45050565b62000372838383620002b560201b6200055c1760201c565b60065460ff1615620002b55760405162461bcd60e51b815260206004820152602a60248201527f45524332305061757361626c653a20746f6b656e207472616e736665722077686044820152691a5b19481c185d5cd95960b21b6064820152608401620000f0565b828054620003e890620004be565b90600052602060002090601f0160209004810192826200040c576000855562000457565b82601f106200042757805160ff191683800117855562000457565b8280016001018555821562000457579182015b82811115620004575782518255916020019190600101906200043a565b506200046592915062000469565b5090565b5b808211156200046557600081556001016200046a565b60006020828403121562000492578081fd5b5051919050565b60008219821115620004b957634e487b7160e01b81526011600452602481fd5b500190565b600181811c90821680620004d357607f821691505b60208210811415620004f557634e487b7160e01b600052602260045260246000fd5b50919050565b6080516115dc6200051e600039600081816102ae015261107a01526115dc6000f3fe608060405234801561001057600080fd5b50600436106101c45760003560e01c806342966c68116100f9578063a217fddf11610097578063d539139311610071578063d5391393146103be578063d547741f146103e5578063dd62ed3e146103f8578063e63ab1e91461040b57600080fd5b8063a217fddf14610390578063a457c2d714610398578063a9059cbb146103ab57600080fd5b806379cc6790116100d357806379cc67901461035a5780638456cb591461036d57806391d148541461037557806395d89b411461038857600080fd5b806342966c68146103135780635c975abb1461032657806370a082311461033157600080fd5b80632f2ff15d1161016657806336568abe1161014057806336568abe146102d257806339509351146102e55780633f4ba83a146102f857806340c10f191461030057600080fd5b80632f2ff15d14610288578063313ce5671461029d578063355274ea146102ac57600080fd5b806318160ddd116101a257806318160ddd1461021957806323b872dd1461022b578063248a9ca31461023e578063282c51f31461026157600080fd5b806301ffc9a7146101c957806306fdde03146101f1578063095ea7b314610206575b600080fd5b6101dc6101d73660046113f4565b610432565b60405190151581526020015b60405180910390f35b6101f9610469565b6040516101e89190611491565b6101dc610214366004611391565b6104fb565b6003545b6040519081526020016101e8565b6101dc610239366004611356565b610513565b61021d61024c3660046113ba565b60009081526020819052604090206001015490565b61021d7f3c11d16cbaffd01df69ce1c404f6340ee057498f5f00246190ea54220576a84881565b61029b6102963660046113d2565b610537565b005b604051601281526020016101e8565b7f000000000000000000000000000000000000000000000000000000000000000061021d565b61029b6102e03660046113d2565b610561565b6101dc6102f3366004611391565b6105e4565b61029b610606565b61029b61030e366004611391565b61063b565b61029b6103213660046113ba565b61066f565b60065460ff166101dc565b61021d61033f36600461130a565b6001600160a01b031660009081526001602052604090205490565b61029b610368366004611391565b610679565b61029b61068e565b6101dc6103833660046113d2565b6106c0565b6101f96106e9565b61021d600081565b6101dc6103a6366004611391565b6106f8565b6101dc6103b9366004611391565b610773565b61021d7f9f2df0fed2c77648de5860a4cc508cd0818c85b8b8a1ab4ceeef8d981c8956a681565b61029b6103f33660046113d2565b610781565b61021d610406366004611324565b6107a6565b61021d7f65d7a28e3265b37a6474929f336521b332c1681b933f6cb9f3376673440d862a81565b60006001600160e01b03198216637965db0b60e01b148061046357506301ffc9a760e01b6001600160e01b03198316145b92915050565b60606004805461047890611555565b80601f01602080910402602001604051908101604052809291908181526020018280546104a490611555565b80156104f15780601f106104c6576101008083540402835291602001916104f1565b820191906000526020600020905b8154815290600101906020018083116104d457829003601f168201915b5050505050905090565b600033610509818585610922565b5060019392505050565b600033610521858285610a46565b61052c858585610ac0565b506001949350505050565b60008281526020819052604090206001015461055281610c99565b61055c8383610ca3565b505050565b6001600160a01b03811633146105d65760405162461bcd60e51b815260206004820152602f60248201527f416363657373436f6e74726f6c3a2063616e206f6e6c792072656e6f756e636560448201526e103937b632b9903337b91039b2b63360891b60648201526084015b60405180910390fd5b6105e08282610d27565b5050565b6000336105098185856105f783836107a6565b61060191906114c4565b610922565b7f65d7a28e3265b37a6474929f336521b332c1681b933f6cb9f3376673440d862a61063081610c99565b610638610d8c565b50565b7f9f2df0fed2c77648de5860a4cc508cd0818c85b8b8a1ab4ceeef8d981c8956a661066581610c99565b61055c8383610e1f565b6106383382610e34565b610684823383610a46565b6105e08282610e34565b7f65d7a28e3265b37a6474929f336521b332c1681b933f6cb9f3376673440d862a6106b881610c99565b610638610f8e565b6000918252602082815260408084206001600160a01b0393909316845291905290205460ff1690565b60606005805461047890611555565b6000338161070682866107a6565b9050838110156107665760405162461bcd60e51b815260206004820152602560248201527f45524332303a2064656372656173656420616c6c6f77616e63652062656c6f77604482015264207a65726f60d81b60648201526084016105cd565b61052c8286868403610922565b600033610509818585610ac0565b60008281526020819052604090206001015461079c81610c99565b61055c8383610d27565b6001600160a01b03918216600090815260026020908152604080832093909416825291909152205490565b6001600160a01b0382166108275760405162461bcd60e51b815260206004820152601f60248201527f45524332303a206d696e7420746f20746865207a65726f20616464726573730060448201526064016105cd565b61083360008383611009565b806003600082825461084591906114c4565b90915550506001600160a01b038216600090815260016020526040812080548392906108729084906114c4565b90915550506040518181526001600160a01b038316906000907fddf252ad1be2c89b69c2b068fc378daa952ba7f163c4a11628f55a4df523b3ef9060200160405180910390a35050565b60065460ff161561055c5760405162461bcd60e51b815260206004820152602a60248201527f45524332305061757361626c653a20746f6b656e207472616e736665722077686044820152691a5b19481c185d5cd95960b21b60648201526084016105cd565b6001600160a01b0383166109845760405162461bcd60e51b8152602060048201526024808201527f45524332303a20617070726f76652066726f6d20746865207a65726f206164646044820152637265737360e01b60648201526084016105cd565b6001600160a01b0382166109e55760405162461bcd60e51b815260206004820152602260248201527f45524332303a20617070726f766520746f20746865207a65726f206164647265604482015261737360f01b60648201526084016105cd565b6001600160a01b0383811660008181526002602090815260408083209487168084529482529182902085905590518481527f8c5be1e5ebec7d5bd14f71427d1e84f3dd0314c0f7b2291e5b200ac8c7c3b925910160405180910390a3505050565b6000610a5284846107a6565b90506000198114610aba5781811015610aad5760405162461bcd60e51b815260206004820152601d60248201527f45524332303a20696e73756666696369656e7420616c6c6f77616e636500000060448201526064016105cd565b610aba8484848403610922565b50505050565b6001600160a01b038316610b245760405162461bcd60e51b815260206004820152602560248201527f45524332303a207472616e736665722066726f6d20746865207a65726f206164604482015264647265737360d81b60648201526084016105cd565b6001600160a01b038216610b865760405162461bcd60e51b815260206004820152602360248201527f45524332303a207472616e7366657220746f20746865207a65726f206164647260448201526265737360e81b60648201526084016105cd565b610b91838383611009565b6001600160a01b03831660009081526001602052604090205481811015610c095760405162461bcd60e51b815260206004820152602660248201527f45524332303a207472616e7366657220616d6f756e7420657863656564732062604482015265616c616e636560d01b60648201526084016105cd565b6001600160a01b03808516600090815260016020526040808220858503905591851681529081208054849290610c409084906114c4565b92505081905550826001600160a01b0316846001600160a01b03167fddf252ad1be2c89b69c2b068fc378daa952ba7f163c4a11628f55a4df523b3ef84604051610c8c91815260200190565b60405180910390a3610aba565b6106388133611014565b610cad82826106c0565b6105e0576000828152602081815260408083206001600160a01b03851684529091529020805460ff19166001179055610ce33390565b6001600160a01b0316816001600160a01b0316837f2f8788117e7eff1d82e926ec794901d17c78024a50270940304540a733656f0d60405160405180910390a45050565b610d3182826106c0565b156105e0576000828152602081815260408083206001600160a01b0385168085529252808320805460ff1916905551339285917ff6391f5c32d9c69d2a47ea670b442974b53935d1edc7fd64eb21e047a839171b9190a45050565b60065460ff16610dd55760405162461bcd60e51b815260206004820152601460248201527314185d5cd8589b194e881b9bdd081c185d5cd95960621b60448201526064016105cd565b6006805460ff191690557f5db9ee0a495bf2e6ff9c91a7834c1ba4fdd244a5e8aa4e537bd38aeae4b073aa335b6040516001600160a01b03909116815260200160405180910390a1565b6000610e2a81610c99565b61055c8383611078565b6001600160a01b038216610e945760405162461bcd60e51b815260206004820152602160248201527f45524332303a206275726e2066726f6d20746865207a65726f206164647265736044820152607360f81b60648201526084016105cd565b610ea082600083611009565b6001600160a01b03821660009081526001602052604090205481811015610f145760405162461bcd60e51b815260206004820152602260248201527f45524332303a206275726e20616d6f756e7420657863656564732062616c616e604482015261636560f01b60648201526084016105cd565b6001600160a01b0383166000908152600160205260408120838303905560038054849290610f439084906114fb565b90915550506040518281526000906001600160a01b038516907fddf252ad1be2c89b69c2b068fc378daa952ba7f163c4a11628f55a4df523b3ef9060200160405180910390a3505050565b60065460ff1615610fd45760405162461bcd60e51b815260206004820152601060248201526f14185d5cd8589b194e881c185d5cd95960821b60448201526064016105cd565b6006805460ff191660011790557f62e78cea01bee320cd4e420270b5ea74000d11b0c9f74754ebdbfc544b05a258610e023390565b61055c8383836108bc565b61101e82826106c0565b6105e057611036816001600160a01b03166014611105565b611041836020611105565b60405160200161105292919061141c565b60408051601f198184030181529082905262461bcd60e51b82526105cd91600401611491565b7f0000000000000000000000000000000000000000000000000000000000000000816110a360035490565b6110ad91906114c4565b11156110fb5760405162461bcd60e51b815260206004820152601960248201527f45524332304361707065643a206361702065786365656465640000000000000060448201526064016105cd565b6105e082826107d1565b606060006111148360026114dc565b61111f9060026114c4565b67ffffffffffffffff81111561114557634e487b7160e01b600052604160045260246000fd5b6040519080825280601f01601f19166020018201604052801561116f576020820181803683370190505b509050600360fc1b8160008151811061119857634e487b7160e01b600052603260045260246000fd5b60200101906001600160f81b031916908160001a905350600f60fb1b816001815181106111d557634e487b7160e01b600052603260045260246000fd5b60200101906001600160f81b031916908160001a90535060006111f98460026114dc565b6112049060016114c4565b90505b6001811115611298576f181899199a1a9b1b9c1cb0b131b232b360811b85600f166010811061124657634e487b7160e01b600052603260045260246000fd5b1a60f81b82828151811061126a57634e487b7160e01b600052603260045260246000fd5b60200101906001600160f81b031916908160001a90535060049490941c936112918161153e565b9050611207565b5083156112e75760405162461bcd60e51b815260206004820181905260248201527f537472696e67733a20686578206c656e67746820696e73756666696369656e7460448201526064016105cd565b9392505050565b80356001600160a01b038116811461130557600080fd5b919050565b60006020828403121561131b578081fd5b6112e7826112ee565b60008060408385031215611336578081fd5b61133f836112ee565b915061134d602084016112ee565b90509250929050565b60008060006060848603121561136a578081fd5b611373846112ee565b9250611381602085016112ee565b9150604084013590509250925092565b600080604083850312156113a3578182fd5b6113ac836112ee565b946020939093013593505050565b6000602082840312156113cb578081fd5b5035919050565b600080604083850312156113e4578182fd5b8235915061134d602084016112ee565b600060208284031215611405578081fd5b81356001600160e01b0319811681146112e7578182fd5b7f416363657373436f6e74726f6c3a206163636f756e7420000000000000000000815260008351611454816017850160208801611512565b7001034b99036b4b9b9b4b733903937b6329607d1b6017918401918201528351611485816028840160208801611512565b01602801949350505050565b60208152600082518060208401526114b0816040850160208701611512565b601f01601f19169190910160400192915050565b600082198211156114d7576114d7611590565b500190565b60008160001904831182151516156114f6576114f6611590565b500290565b60008282101561150d5761150d611590565b500390565b60005b8381101561152d578181015183820152602001611515565b83811115610aba5750506000910152565b60008161154d5761154d611590565b506000190190565b600181811c9082168061156957607f821691505b6020821081141561158a57634e487b7160e01b600052602260045260246000fd5b50919050565b634e487b7160e01b600052601160045260246000fdfea264697066735822122017f9e7cc850aa2bc5e84d49f9d6c60e255557e1b34d48b46ef2d131f9e9ebb3664736f6c63430008040033",
  "linkReferences": {},
  "deployedLinkReferences": {}
}