{
  "_format": "hh-sol-artifact-1",
  "contractName": "LockTokens",
  "sourceName": "contracts/LockTokens.sol",
  "abi": [
    {
      "anonymous": false,
      "inputs": [
        {
          "indexed": true,
          "internalType": "address",
          "name": "previousOwner",
          "type": "address"
        },
        {
          "indexed": true,
          "internalType": "address",
          "name": "newOwner",
          "type": "address"
        }
      ],
      "name": "OwnershipTransferred",
      "type": "event"
    },
    {
      "inputs": [
        {
          "internalType": "uint256",
          "name": "_amount",
          "type": "uint256"
        }
      ],
      "name": "depositAndLock",
      "outputs": [],
      "stateMutability": "nonpayable",
      "type": "function"
    },
    {
      "inputs": [],
      "name": "owner",
      "outputs": [
        {
          "internalType": "address",
          "name": "",
          "type": "address"
        }
      ],
      "stateMutability": "view",
      "type": "function"
    },
    {
      "inputs": [],
      "name": "renounceOwnership",
      "outputs": [],
      "stateMutability": "nonpayable",
      "type": "function"
    },
    {
      "inputs": [
        {
          "internalType": "address",
          "name": "newOwner",
          "type": "address"
        }
      ],
      "name": "transferOwnership",
      "outputs": [],
      "stateMutability": "nonpayable",
      "type": "function"
    }
  ],
  "bytecode": "0x608060405234801561001057600080fd5b5061001a33610023565b60018055610073565b600080546001600160a01b038381166001600160a01b0319831681178455604051919092169283917f8be0079c531659141344cd1fd0a4f28419497f9722a3daafe3b4186f6b6457e09190a35050565b61035a806100826000396000f3fe608060405234801561001057600080fd5b506004361061004c5760003560e01c806333e6c50914610051578063715018a6146100665780638da5cb5b1461006e578063f2fde38b1461008d575b600080fd5b61006461005f36600461030c565b6100a0565b005b61006461015d565b600054604080516001600160a01b039092168252519081900360200190f35b61006461009b3660046102de565b6101c3565b600260015414156100f85760405162461bcd60e51b815260206004820152601f60248201527f5265656e7472616e637947756172643a207265656e7472616e742063616c6c0060448201526064015b60405180910390fd5b6002600155806101565760405162461bcd60e51b8152602060048201526024808201527f4465706f73697420616d6f756e74206d757374206265206269676765722074686044820152630616e20360e41b60648201526084016100ef565b5060018055565b6000546001600160a01b031633146101b75760405162461bcd60e51b815260206004820181905260248201527f4f776e61626c653a2063616c6c6572206973206e6f7420746865206f776e657260448201526064016100ef565b6101c1600061028e565b565b6000546001600160a01b0316331461021d5760405162461bcd60e51b815260206004820181905260248201527f4f776e61626c653a2063616c6c6572206973206e6f7420746865206f776e657260448201526064016100ef565b6001600160a01b0381166102825760405162461bcd60e51b815260206004820152602660248201527f4f776e61626c653a206e6577206f776e657220697320746865207a65726f206160448201526564647265737360d01b60648201526084016100ef565b61028b8161028e565b50565b600080546001600160a01b038381166001600160a01b0319831681178455604051919092169283917f8be0079c531659141344cd1fd0a4f28419497f9722a3daafe3b4186f6b6457e09190a35050565b6000602082840312156102ef578081fd5b81356001600160a01b0381168114610305578182fd5b9392505050565b60006020828403121561031d578081fd5b503591905056fea26469706673582212209b159b3fbb8ff2beb05744406a82f91c05215c73c9c37e0bec3e7e02cfd6c0be64736f6c63430008040033",
  "linkReferences": {},
  "deployedLinkReferences": {}
}