{
  "address": "0x9fE46736679d2D9a65F0992F2272dE9f3c7fa6e0",
  "abi": [
    {
      "inputs": [
        {
          "internalType": "address",
          "name": "_token",
          "type": "address"
        }
      ],
      "stateMutability": "nonpayable",
      "type": "constructor"
    },
    {
      "anonymous": false,
      "inputs": [
        {
          "indexed": true,
          "internalType": "address",
          "name": "previousOwner",
          "type": "address"
        },
        {
          "indexed": true,
          "internalType": "address",
          "name": "newOwner",
          "type": "address"
        }
      ],
      "name": "OwnershipTransferred",
      "type": "event"
    },
    {
      "inputs": [
        {
          "internalType": "address",
          "name": "user",
          "type": "address"
        }
      ],
      "name": "addToWhiteList",
      "outputs": [],
      "stateMutability": "nonpayable",
      "type": "function"
    },
    {
      "inputs": [
        {
          "internalType": "uint256",
          "name": "amount",
          "type": "uint256"
        }
      ],
      "name": "deposit",
      "outputs": [],
      "stateMutability": "nonpayable",
      "type": "function"
    },
    {
      "inputs": [],
      "name": "owner",
      "outputs": [
        {
          "internalType": "address",
          "name": "",
          "type": "address"
        }
      ],
      "stateMutability": "view",
      "type": "function"
    },
    {
      "inputs": [
        {
          "internalType": "address",
          "name": "user",
          "type": "address"
        }
      ],
      "name": "removeFromWhiteList",
      "outputs": [],
      "stateMutability": "nonpayable",
      "type": "function"
    },
    {
      "inputs": [],
      "name": "renounceOwnership",
      "outputs": [],
      "stateMutability": "nonpayable",
      "type": "function"
    },
    {
      "inputs": [],
      "name": "token",
      "outputs": [
        {
          "internalType": "contract IERC20",
          "name": "",
          "type": "address"
        }
      ],
      "stateMutability": "view",
      "type": "function"
    },
    {
      "inputs": [
        {
          "internalType": "address",
          "name": "newOwner",
          "type": "address"
        }
      ],
      "name": "transferOwnership",
      "outputs": [],
      "stateMutability": "nonpayable",
      "type": "function"
    },
    {
      "inputs": [
        {
          "internalType": "address",
          "name": "",
          "type": "address"
        }
      ],
      "name": "whiteList",
      "outputs": [
        {
          "internalType": "bool",
          "name": "",
          "type": "bool"
        }
      ],
      "stateMutability": "view",
      "type": "function"
    },
    {
      "inputs": [
        {
          "internalType": "uint256",
          "name": "amount",
          "type": "uint256"
        }
      ],
      "name": "withdraw",
      "outputs": [],
      "stateMutability": "nonpayable",
      "type": "function"
    }
  ],
  "transactionHash": "0x4e03e389130e6899371c678d19e2936905fd6d7cf9d7df0c80ba42be4f2020b9",
  "args": [
    "0x5FbDB2315678afecb367f032d93F642f64180aa3"
  ],
  "numDeployments": 1,
  "solcInputHash": "0ea87ee571542090f4be03753e7ea9bd",
  "bytecode": "0x608060405234801561001057600080fd5b506040516108ca3803806108ca83398101604081905261002f916100ad565b6100383361005d565b600280546001600160a01b0319166001600160a01b03929092169190911790556100db565b600080546001600160a01b038381166001600160a01b0319831681178455604051919092169283917f8be0079c531659141344cd1fd0a4f28419497f9722a3daafe3b4186f6b6457e09190a35050565b6000602082840312156100be578081fd5b81516001600160a01b03811681146100d4578182fd5b9392505050565b6107e0806100ea6000396000f3fe608060405234801561001057600080fd5b50600436106100935760003560e01c8063715018a611610066578063715018a61461010b5780638da5cb5b14610113578063b6b55f2514610138578063f2fde38b1461014b578063fc0c546a1461015e57600080fd5b806301bf6648146100985780632e1a7d4d146100ad578063372c12b1146100c057806347ee0394146100f8575b600080fd5b6100ab6100a636600461069b565b610171565b005b6100ab6100bb3660046106e2565b6101c5565b6100e36100ce36600461069b565b60016020526000908152604090205460ff1681565b60405190151581526020015b60405180910390f35b6100ab61010636600461069b565b6101fc565b6100ab61024d565b6000546001600160a01b03165b6040516001600160a01b0390911681526020016100ef565b6100ab6101463660046106e2565b610283565b6100ab61015936600461069b565b6102b8565b600254610120906001600160a01b031681565b6000546001600160a01b031633146101a45760405162461bcd60e51b815260040161019b90610749565b60405180910390fd5b6001600160a01b03166000908152600160205260409020805460ff19169055565b336000908152600160208190526040909120805460ff191690911790556002546101f9906001600160a01b03163383610350565b50565b6000546001600160a01b031633146102265760405162461bcd60e51b815260040161019b90610749565b6001600160a01b03166000908152600160208190526040909120805460ff19169091179055565b6000546001600160a01b031633146102775760405162461bcd60e51b815260040161019b90610749565b61028160006103b8565b565b336000908152600160208190526040909120805460ff191690911790556002546101f9906001600160a01b0316333084610408565b6000546001600160a01b031633146102e25760405162461bcd60e51b815260040161019b90610749565b6001600160a01b0381166103475760405162461bcd60e51b815260206004820152602660248201527f4f776e61626c653a206e6577206f776e657220697320746865207a65726f206160448201526564647265737360d01b606482015260840161019b565b6101f9816103b8565b6040516001600160a01b0383166024820152604481018290526103b390849063a9059cbb60e01b906064015b60408051601f198184030181529190526020810180516001600160e01b03166001600160e01b031990931692909217909152610446565b505050565b600080546001600160a01b038381166001600160a01b0319831681178455604051919092169283917f8be0079c531659141344cd1fd0a4f28419497f9722a3daafe3b4186f6b6457e09190a35050565b6040516001600160a01b03808516602483015283166044820152606481018290526104409085906323b872dd60e01b9060840161037c565b50505050565b600061049b826040518060400160405280602081526020017f5361666545524332303a206c6f772d6c6576656c2063616c6c206661696c6564815250856001600160a01b03166105189092919063ffffffff16565b8051909150156103b357808060200190518101906104b991906106c2565b6103b35760405162461bcd60e51b815260206004820152602a60248201527f5361666545524332303a204552433230206f7065726174696f6e20646964206e6044820152691bdd081cdd58d8d9595960b21b606482015260840161019b565b60606105278484600085610531565b90505b9392505050565b6060824710156105925760405162461bcd60e51b815260206004820152602660248201527f416464726573733a20696e73756666696369656e742062616c616e636520666f6044820152651c8818d85b1b60d21b606482015260840161019b565b6001600160a01b0385163b6105e95760405162461bcd60e51b815260206004820152601d60248201527f416464726573733a2063616c6c20746f206e6f6e2d636f6e7472616374000000604482015260640161019b565b600080866001600160a01b0316858760405161060591906106fa565b60006040518083038185875af1925050503d8060008114610642576040519150601f19603f3d011682016040523d82523d6000602084013e610647565b606091505b5091509150610657828286610662565b979650505050505050565b6060831561067157508161052a565b8251156106815782518084602001fd5b8160405162461bcd60e51b815260040161019b9190610716565b6000602082840312156106ac578081fd5b81356001600160a01b038116811461052a578182fd5b6000602082840312156106d3578081fd5b8151801515811461052a578182fd5b6000602082840312156106f3578081fd5b5035919050565b6000825161070c81846020870161077e565b9190910192915050565b602081526000825180602084015261073581604085016020870161077e565b601f01601f19169190910160400192915050565b6020808252818101527f4f776e61626c653a2063616c6c6572206973206e6f7420746865206f776e6572604082015260600190565b60005b83811015610799578181015183820152602001610781565b83811115610440575050600091015256fea2646970667358221220b54eb09f0c289e315f068e22065f1945b931f09c7772ab8b935e0e552961bed964736f6c63430008040033",
  "devdoc": {
    "kind": "dev",
    "methods": {
      "owner()": {
        "details": "Returns the address of the current owner."
      },
      "renounceOwnership()": {
        "details": "Leaves the contract without owner. It will not be possible to call `onlyOwner` functions anymore. Can only be called by the current owner. NOTE: Renouncing ownership will leave the contract without an owner, thereby removing any functionality that is only available to the owner."
      },
      "transferOwnership(address)": {
        "details": "Transfers ownership of the contract to a new account (`newOwner`). Can only be called by the current owner."
      }
    },
    "version": 1
  },
  "userdoc": {
    "kind": "user",
    "methods": {},
    "version": 1
  },
  "storageLayout": {
    "storage": [
      {
        "astId": 400,
        "contract": "contracts/DepositWithdrawal.sol:DepositWithdrawal",
        "label": "_owner",
        "offset": 0,
        "slot": "0",
        "type": "t_address"
      },
      {
        "astId": 2221,
        "contract": "contracts/DepositWithdrawal.sol:DepositWithdrawal",
        "label": "whiteList",
        "offset": 0,
        "slot": "1",
        "type": "t_mapping(t_address,t_bool)"
      },
      {
        "astId": 2224,
        "contract": "contracts/DepositWithdrawal.sol:DepositWithdrawal",
        "label": "token",
        "offset": 0,
        "slot": "2",
        "type": "t_contract(IERC20)1253"
      }
    ],
    "types": {
      "t_address": {
        "encoding": "inplace",
        "label": "address",
        "numberOfBytes": "20"
      },
      "t_bool": {
        "encoding": "inplace",
        "label": "bool",
        "numberOfBytes": "1"
      },
      "t_contract(IERC20)1253": {
        "encoding": "inplace",
        "label": "contract IERC20",
        "numberOfBytes": "20"
      },
      "t_mapping(t_address,t_bool)": {
        "encoding": "mapping",
        "key": "t_address",
        "label": "mapping(address => bool)",
        "numberOfBytes": "32",
        "value": "t_bool"
      }
    }
  }
}