{
  "_format": "hh-sol-artifact-1",
  "contractName": "FirstToken",
  "sourceName": "contracts/FirstToken.sol",
  "abi": [
    {
      "inputs": [
        {
          "internalType": "uint256",
          "name": "initialSupply",
          "type": "uint256"
        }
      ],
      "stateMutability": "nonpayable",
      "type": "constructor"
    },
    {
      "anonymous": false,
      "inputs": [
        {
          "indexed": true,
          "internalType": "address",
          "name": "owner",
          "type": "address"
        },
        {
          "indexed": true,
          "internalType": "address",
          "name": "spender",
          "type": "address"
        },
        {
          "indexed": false,
          "internalType": "uint256",
          "name": "value",
          "type": "uint256"
        }
      ],
      "name": "Approval",
      "type": "event"
    },
    {
      "anonymous": false,
      "inputs": [
        {
          "indexed": true,
          "internalType": "address",
          "name": "previousOwner",
          "type": "address"
        },
        {
          "indexed": true,
          "internalType": "address",
          "name": "newOwner",
          "type": "address"
        }
      ],
      "name": "OwnershipTransferred",
      "type": "event"
    },
    {
      "anonymous": false,
      "inputs": [
        {
          "indexed": false,
          "internalType": "address",
          "name": "account",
          "type": "address"
        }
      ],
      "name": "Paused",
      "type": "event"
    },
    {
      "anonymous": false,
      "inputs": [
        {
          "indexed": true,
          "internalType": "address",
          "name": "from",
          "type": "address"
        },
        {
          "indexed": true,
          "internalType": "address",
          "name": "to",
          "type": "address"
        },
        {
          "indexed": false,
          "internalType": "uint256",
          "name": "value",
          "type": "uint256"
        }
      ],
      "name": "Transfer",
      "type": "event"
    },
    {
      "anonymous": false,
      "inputs": [
        {
          "indexed": false,
          "internalType": "address",
          "name": "account",
          "type": "address"
        }
      ],
      "name": "Unpaused",
      "type": "event"
    },
    {
      "inputs": [
        {
          "internalType": "address",
          "name": "owner",
          "type": "address"
        },
        {
          "internalType": "address",
          "name": "spender",
          "type": "address"
        }
      ],
      "name": "allowance",
      "outputs": [
        {
          "internalType": "uint256",
          "name": "",
          "type": "uint256"
        }
      ],
      "stateMutability": "view",
      "type": "function"
    },
    {
      "inputs": [
        {
          "internalType": "address",
          "name": "spender",
          "type": "address"
        },
        {
          "internalType": "uint256",
          "name": "amount",
          "type": "uint256"
        }
      ],
      "name": "approve",
      "outputs": [
        {
          "internalType": "bool",
          "name": "",
          "type": "bool"
        }
      ],
      "stateMutability": "nonpayable",
      "type": "function"
    },
    {
      "inputs": [
        {
          "internalType": "address",
          "name": "account",
          "type": "address"
        }
      ],
      "name": "balanceOf",
      "outputs": [
        {
          "internalType": "uint256",
          "name": "",
          "type": "uint256"
        }
      ],
      "stateMutability": "view",
      "type": "function"
    },
    {
      "inputs": [
        {
          "internalType": "uint256",
          "name": "amount",
          "type": "uint256"
        }
      ],
      "name": "burn",
      "outputs": [],
      "stateMutability": "nonpayable",
      "type": "function"
    },
    {
      "inputs": [
        {
          "internalType": "address",
          "name": "account",
          "type": "address"
        },
        {
          "internalType": "uint256",
          "name": "amount",
          "type": "uint256"
        }
      ],
      "name": "burnFrom",
      "outputs": [],
      "stateMutability": "nonpayable",
      "type": "function"
    },
    {
      "inputs": [],
      "name": "cap",
      "outputs": [
        {
          "internalType": "uint256",
          "name": "",
          "type": "uint256"
        }
      ],
      "stateMutability": "view",
      "type": "function"
    },
    {
      "inputs": [],
      "name": "decimals",
      "outputs": [
        {
          "internalType": "uint8",
          "name": "",
          "type": "uint8"
        }
      ],
      "stateMutability": "view",
      "type": "function"
    },
    {
      "inputs": [
        {
          "internalType": "address",
          "name": "spender",
          "type": "address"
        },
        {
          "internalType": "uint256",
          "name": "subtractedValue",
          "type": "uint256"
        }
      ],
      "name": "decreaseAllowance",
      "outputs": [
        {
          "internalType": "bool",
          "name": "",
          "type": "bool"
        }
      ],
      "stateMutability": "nonpayable",
      "type": "function"
    },
    {
      "inputs": [
        {
          "internalType": "address",
          "name": "spender",
          "type": "address"
        },
        {
          "internalType": "uint256",
          "name": "addedValue",
          "type": "uint256"
        }
      ],
      "name": "increaseAllowance",
      "outputs": [
        {
          "internalType": "bool",
          "name": "",
          "type": "bool"
        }
      ],
      "stateMutability": "nonpayable",
      "type": "function"
    },
    {
      "inputs": [
        {
          "internalType": "address",
          "name": "to",
          "type": "address"
        },
        {
          "internalType": "uint256",
          "name": "amount",
          "type": "uint256"
        }
      ],
      "name": "mint",
      "outputs": [],
      "stateMutability": "nonpayable",
      "type": "function"
    },
    {
      "inputs": [],
      "name": "name",
      "outputs": [
        {
          "internalType": "string",
          "name": "",
          "type": "string"
        }
      ],
      "stateMutability": "view",
      "type": "function"
    },
    {
      "inputs": [],
      "name": "owner",
      "outputs": [
        {
          "internalType": "address",
          "name": "",
          "type": "address"
        }
      ],
      "stateMutability": "view",
      "type": "function"
    },
    {
      "inputs": [],
      "name": "pause",
      "outputs": [],
      "stateMutability": "nonpayable",
      "type": "function"
    },
    {
      "inputs": [],
      "name": "paused",
      "outputs": [
        {
          "internalType": "bool",
          "name": "",
          "type": "bool"
        }
      ],
      "stateMutability": "view",
      "type": "function"
    },
    {
      "inputs": [],
      "name": "renounceOwnership",
      "outputs": [],
      "stateMutability": "nonpayable",
      "type": "function"
    },
    {
      "inputs": [],
      "name": "symbol",
      "outputs": [
        {
          "internalType": "string",
          "name": "",
          "type": "string"
        }
      ],
      "stateMutability": "view",
      "type": "function"
    },
    {
      "inputs": [],
      "name": "totalSupply",
      "outputs": [
        {
          "internalType": "uint256",
          "name": "",
          "type": "uint256"
        }
      ],
      "stateMutability": "view",
      "type": "function"
    },
    {
      "inputs": [
        {
          "internalType": "address",
          "name": "to",
          "type": "address"
        },
        {
          "internalType": "uint256",
          "name": "amount",
          "type": "uint256"
        }
      ],
      "name": "transfer",
      "outputs": [
        {
          "internalType": "bool",
          "name": "",
          "type": "bool"
        }
      ],
      "stateMutability": "nonpayable",
      "type": "function"
    },
    {
      "inputs": [
        {
          "internalType": "address",
          "name": "from",
          "type": "address"
        },
        {
          "internalType": "address",
          "name": "to",
          "type": "address"
        },
        {
          "internalType": "uint256",
          "name": "amount",
          "type": "uint256"
        }
      ],
      "name": "transferFrom",
      "outputs": [
        {
          "internalType": "bool",
          "name": "",
          "type": "bool"
        }
      ],
      "stateMutability": "nonpayable",
      "type": "function"
    },
    {
      "inputs": [
        {
          "internalType": "address",
          "name": "newOwner",
          "type": "address"
        }
      ],
      "name": "transferOwnership",
      "outputs": [],
      "stateMutability": "nonpayable",
      "type": "function"
    },
    {
      "inputs": [],
      "name": "unpause",
      "outputs": [],
      "stateMutability": "nonpayable",
      "type": "function"
    }
  ],
  "bytecode": "0x60a06040523480156200001157600080fd5b506040516200157838038062001578833981016040819052620000349162000438565b69021e19e0c9bab2400000604051806040016040528060058152602001642a37b5b2b760d91b81525060405180604001604052806003815260200162544f4b60e81b815250620000936200008d620001ae60201b60201c565b620001b2565b8151620000a890600490602085019062000392565b508051620000be90600590602084019062000392565b50505060008111620001175760405162461bcd60e51b815260206004820152601560248201527f45524332304361707065643a206361702069732030000000000000000000000060448201526064015b60405180910390fd5b6080526006805460ff1916905569021e19e0c9bab24000008110620001905760405162461bcd60e51b815260206004820152602860248201527f496e697469616c20737570706c792063616e6e6f74206265206269676765722060448201526707468616e206361760c41b60648201526084016200010e565b620001a733826200020260201b620006281760201c565b50620004b3565b3390565b600080546001600160a01b038381166001600160a01b0319831681178455604051919092169283917f8be0079c531659141344cd1fd0a4f28419497f9722a3daafe3b4186f6b6457e09190a35050565b6001600160a01b0382166200025a5760405162461bcd60e51b815260206004820152601f60248201527f45524332303a206d696e7420746f20746865207a65726f20616464726573730060448201526064016200010e565b6200026860008383620002f5565b80600360008282546200027c919062000451565b90915550506001600160a01b03821660009081526001602052604081208054839290620002ab90849062000451565b90915550506040518181526001600160a01b038316906000907fddf252ad1be2c89b69c2b068fc378daa952ba7f163c4a11628f55a4df523b3ef9060200160405180910390a35050565b6200030d8383836200031260201b620007131760201c565b505050565b6200032a8383836200030d60201b620007791760201c565b60065460ff16156200030d5760405162461bcd60e51b815260206004820152602a60248201527f45524332305061757361626c653a20746f6b656e207472616e736665722077686044820152691a5b19481c185d5cd95960b21b60648201526084016200010e565b828054620003a09062000476565b90600052602060002090601f016020900481019282620003c457600085556200040f565b82601f10620003df57805160ff19168380011785556200040f565b828001600101855582156200040f579182015b828111156200040f578251825591602001919060010190620003f2565b506200041d92915062000421565b5090565b5b808211156200041d576000815560010162000422565b6000602082840312156200044a578081fd5b5051919050565b600082198211156200047157634e487b7160e01b81526011600452602481fd5b500190565b600181811c908216806200048b57607f821691505b60208210811415620004ad57634e487b7160e01b600052602260045260246000fd5b50919050565b6080516110a2620004d6600039600081816101b30152610dee01526110a26000f3fe608060405234801561001057600080fd5b50600436106101375760003560e01c80635c975abb116100b85780638da5cb5b1161007c5780638da5cb5b1461027157806395d89b411461028c578063a457c2d714610294578063a9059cbb146102a7578063dd62ed3e146102ba578063f2fde38b146102cd57600080fd5b80635c975abb1461021a57806370a0823114610225578063715018a61461024e57806379cc6790146102565780638456cb591461026957600080fd5b8063355274ea116100ff578063355274ea146101b157806339509351146101d75780633f4ba83a146101ea57806340c10f19146101f457806342966c681461020757600080fd5b806306fdde031461013c578063095ea7b31461015a57806318160ddd1461017d57806323b872dd1461018f578063313ce567146101a2575b600080fd5b6101446102e0565b6040516101519190610f64565b60405180910390f35b61016d610168366004610f23565b610372565b6040519015158152602001610151565b6003545b604051908152602001610151565b61016d61019d366004610ee8565b61038a565b60405160128152602001610151565b7f0000000000000000000000000000000000000000000000000000000000000000610181565b61016d6101e5366004610f23565b6103ae565b6101f26103d0565b005b6101f2610202366004610f23565b61040d565b6101f2610215366004610f4c565b610445565b60065460ff1661016d565b610181610233366004610e95565b6001600160a01b031660009081526001602052604090205490565b6101f2610452565b6101f2610264366004610f23565b610486565b6101f261049b565b6000546040516001600160a01b039091168152602001610151565b6101446104cd565b61016d6102a2366004610f23565b6104dc565b61016d6102b5366004610f23565b610557565b6101816102c8366004610eb6565b610565565b6101f26102db366004610e95565b610590565b6060600480546102ef9061101b565b80601f016020809104026020016040519081016040528092919081815260200182805461031b9061101b565b80156103685780601f1061033d57610100808354040283529160200191610368565b820191906000526020600020905b81548152906001019060200180831161034b57829003601f168201915b5050505050905090565b60003361038081858561077e565b5060019392505050565b6000336103988582856108a2565b6103a385858561091c565b506001949350505050565b6000336103808185856103c18383610565565b6103cb9190610fec565b61077e565b6000546001600160a01b031633146104035760405162461bcd60e51b81526004016103fa90610fb7565b60405180910390fd5b61040b610af5565b565b6000546001600160a01b031633146104375760405162461bcd60e51b81526004016103fa90610fb7565b6104418282610b88565b5050565b61044f3382610bbc565b50565b6000546001600160a01b0316331461047c5760405162461bcd60e51b81526004016103fa90610fb7565b61040b6000610d16565b6104918233836108a2565b6104418282610bbc565b6000546001600160a01b031633146104c55760405162461bcd60e51b81526004016103fa90610fb7565b61040b610d66565b6060600580546102ef9061101b565b600033816104ea8286610565565b90508381101561054a5760405162461bcd60e51b815260206004820152602560248201527f45524332303a2064656372656173656420616c6c6f77616e63652062656c6f77604482015264207a65726f60d81b60648201526084016103fa565b6103a3828686840361077e565b60003361038081858561091c565b6001600160a01b03918216600090815260026020908152604080832093909416825291909152205490565b6000546001600160a01b031633146105ba5760405162461bcd60e51b81526004016103fa90610fb7565b6001600160a01b03811661061f5760405162461bcd60e51b815260206004820152602660248201527f4f776e61626c653a206e6577206f776e657220697320746865207a65726f206160448201526564647265737360d01b60648201526084016103fa565b61044f81610d16565b6001600160a01b03821661067e5760405162461bcd60e51b815260206004820152601f60248201527f45524332303a206d696e7420746f20746865207a65726f20616464726573730060448201526064016103fa565b61068a60008383610de1565b806003600082825461069c9190610fec565b90915550506001600160a01b038216600090815260016020526040812080548392906106c9908490610fec565b90915550506040518181526001600160a01b038316906000907fddf252ad1be2c89b69c2b068fc378daa952ba7f163c4a11628f55a4df523b3ef9060200160405180910390a35050565b60065460ff16156107795760405162461bcd60e51b815260206004820152602a60248201527f45524332305061757361626c653a20746f6b656e207472616e736665722077686044820152691a5b19481c185d5cd95960b21b60648201526084016103fa565b505050565b6001600160a01b0383166107e05760405162461bcd60e51b8152602060048201526024808201527f45524332303a20617070726f76652066726f6d20746865207a65726f206164646044820152637265737360e01b60648201526084016103fa565b6001600160a01b0382166108415760405162461bcd60e51b815260206004820152602260248201527f45524332303a20617070726f766520746f20746865207a65726f206164647265604482015261737360f01b60648201526084016103fa565b6001600160a01b0383811660008181526002602090815260408083209487168084529482529182902085905590518481527f8c5be1e5ebec7d5bd14f71427d1e84f3dd0314c0f7b2291e5b200ac8c7c3b925910160405180910390a3505050565b60006108ae8484610565565b9050600019811461091657818110156109095760405162461bcd60e51b815260206004820152601d60248201527f45524332303a20696e73756666696369656e7420616c6c6f77616e636500000060448201526064016103fa565b610916848484840361077e565b50505050565b6001600160a01b0383166109805760405162461bcd60e51b815260206004820152602560248201527f45524332303a207472616e736665722066726f6d20746865207a65726f206164604482015264647265737360d81b60648201526084016103fa565b6001600160a01b0382166109e25760405162461bcd60e51b815260206004820152602360248201527f45524332303a207472616e7366657220746f20746865207a65726f206164647260448201526265737360e81b60648201526084016103fa565b6109ed838383610de1565b6001600160a01b03831660009081526001602052604090205481811015610a655760405162461bcd60e51b815260206004820152602660248201527f45524332303a207472616e7366657220616d6f756e7420657863656564732062604482015265616c616e636560d01b60648201526084016103fa565b6001600160a01b03808516600090815260016020526040808220858503905591851681529081208054849290610a9c908490610fec565b92505081905550826001600160a01b0316846001600160a01b03167fddf252ad1be2c89b69c2b068fc378daa952ba7f163c4a11628f55a4df523b3ef84604051610ae891815260200190565b60405180910390a3610916565b60065460ff16610b3e5760405162461bcd60e51b815260206004820152601460248201527314185d5cd8589b194e881b9bdd081c185d5cd95960621b60448201526064016103fa565b6006805460ff191690557f5db9ee0a495bf2e6ff9c91a7834c1ba4fdd244a5e8aa4e537bd38aeae4b073aa335b6040516001600160a01b03909116815260200160405180910390a1565b6000546001600160a01b03163314610bb25760405162461bcd60e51b81526004016103fa90610fb7565b6104418282610dec565b6001600160a01b038216610c1c5760405162461bcd60e51b815260206004820152602160248201527f45524332303a206275726e2066726f6d20746865207a65726f206164647265736044820152607360f81b60648201526084016103fa565b610c2882600083610de1565b6001600160a01b03821660009081526001602052604090205481811015610c9c5760405162461bcd60e51b815260206004820152602260248201527f45524332303a206275726e20616d6f756e7420657863656564732062616c616e604482015261636560f01b60648201526084016103fa565b6001600160a01b0383166000908152600160205260408120838303905560038054849290610ccb908490611004565b90915550506040518281526000906001600160a01b038516907fddf252ad1be2c89b69c2b068fc378daa952ba7f163c4a11628f55a4df523b3ef9060200160405180910390a3505050565b600080546001600160a01b038381166001600160a01b0319831681178455604051919092169283917f8be0079c531659141344cd1fd0a4f28419497f9722a3daafe3b4186f6b6457e09190a35050565b60065460ff1615610dac5760405162461bcd60e51b815260206004820152601060248201526f14185d5cd8589b194e881c185d5cd95960821b60448201526064016103fa565b6006805460ff191660011790557f62e78cea01bee320cd4e420270b5ea74000d11b0c9f74754ebdbfc544b05a258610b6b3390565b610779838383610713565b7f000000000000000000000000000000000000000000000000000000000000000081610e1760035490565b610e219190610fec565b1115610e6f5760405162461bcd60e51b815260206004820152601960248201527f45524332304361707065643a206361702065786365656465640000000000000060448201526064016103fa565b6104418282610628565b80356001600160a01b0381168114610e9057600080fd5b919050565b600060208284031215610ea6578081fd5b610eaf82610e79565b9392505050565b60008060408385031215610ec8578081fd5b610ed183610e79565b9150610edf60208401610e79565b90509250929050565b600080600060608486031215610efc578081fd5b610f0584610e79565b9250610f1360208501610e79565b9150604084013590509250925092565b60008060408385031215610f35578182fd5b610f3e83610e79565b946020939093013593505050565b600060208284031215610f5d578081fd5b5035919050565b6000602080835283518082850152825b81811015610f9057858101830151858201604001528201610f74565b81811115610fa15783604083870101525b50601f01601f1916929092016040019392505050565b6020808252818101527f4f776e61626c653a2063616c6c6572206973206e6f7420746865206f776e6572604082015260600190565b60008219821115610fff57610fff611056565b500190565b60008282101561101657611016611056565b500390565b600181811c9082168061102f57607f821691505b6020821081141561105057634e487b7160e01b600052602260045260246000fd5b50919050565b634e487b7160e01b600052601160045260246000fdfea26469706673582212207199d9b072d3314052e98396d008ffcb5c167303f83a36798216ebf1579eba7464736f6c63430008040033",
  "linkReferences": {},
  "deployedLinkReferences": {}
}