{
  "_format": "hh-sol-artifact-1",
  "contractName": "DepositWithdrawal",
  "sourceName": "contracts/DepositWithdrawal.sol",
  "abi": [
    {
      "inputs": [
        {
          "internalType": "address",
          "name": "_token",
          "type": "address"
        }
      ],
      "stateMutability": "nonpayable",
      "type": "constructor"
    },
    {
      "inputs": [
        {
          "internalType": "uint256",
          "name": "amount",
          "type": "uint256"
        }
      ],
      "name": "deposit",
      "outputs": [],
      "stateMutability": "nonpayable",
      "type": "function"
    },
    {
      "inputs": [],
      "name": "token",
      "outputs": [
        {
          "internalType": "contract IERC20",
          "name": "",
          "type": "address"
        }
      ],
      "stateMutability": "view",
      "type": "function"
    },
    {
      "inputs": [
        {
          "internalType": "uint256",
          "name": "amount",
          "type": "uint256"
        }
      ],
      "name": "withdraw",
      "outputs": [],
      "stateMutability": "nonpayable",
      "type": "function"
    }
  ],
  "bytecode": "0x608060405234801561001057600080fd5b5060405161079638038061079683398101604081905261002f91610054565b600180546001600160a01b0319166001600160a01b0392909216919091179055610082565b600060208284031215610065578081fd5b81516001600160a01b038116811461007b578182fd5b9392505050565b610705806100916000396000f3fe608060405234801561001057600080fd5b50600436106100415760003560e01c80632e1a7d4d14610046578063b6b55f251461005b578063fc0c546a1461006e575b600080fd5b610059610054366004610600565b61009d565b005b610059610069366004610600565b6100b7565b600154610081906001600160a01b031681565b6040516001600160a01b03909116815260200160405180910390f35b6001546100b4906001600160a01b031633836100fd565b50565b6001546100ce906001600160a01b03163383610165565b6001546100e6906001600160a01b031633308461022c565b6001546100b4906001600160a01b03163383610264565b6040516001600160a01b03831660248201526044810182905261016090849063a9059cbb60e01b906064015b60408051601f198184030181529190526020810180516001600160e01b03166001600160e01b03199093169290921790915261038b565b505050565b604051636eb1769f60e11b81523060048201526001600160a01b038381166024830152600091839186169063dd62ed3e9060440160206040518083038186803b1580156101b157600080fd5b505afa1580156101c5573d6000803e3d6000fd5b505050506040513d601f19601f820116820180604052508101906101e99190610618565b6101f3919061067f565b6040516001600160a01b03851660248201526044810182905290915061022690859063095ea7b360e01b90606401610129565b50505050565b6040516001600160a01b03808516602483015283166044820152606481018290526102269085906323b872dd60e01b90608401610129565b604051636eb1769f60e11b81523060048201526001600160a01b0383811660248301526000919085169063dd62ed3e9060440160206040518083038186803b1580156102af57600080fd5b505afa1580156102c3573d6000803e3d6000fd5b505050506040513d601f19601f820116820180604052508101906102e79190610618565b9050818110156103505760405162461bcd60e51b815260206004820152602960248201527f5361666545524332303a2064656372656173656420616c6c6f77616e63652062604482015268656c6f77207a65726f60b81b60648201526084015b60405180910390fd5b6040516001600160a01b0384166024820152828203604482018190529061038490869063095ea7b360e01b90606401610129565b5050505050565b60006103e0826040518060400160405280602081526020017f5361666545524332303a206c6f772d6c6576656c2063616c6c206661696c6564815250856001600160a01b031661045d9092919063ffffffff16565b80519091501561016057808060200190518101906103fe91906105e0565b6101605760405162461bcd60e51b815260206004820152602a60248201527f5361666545524332303a204552433230206f7065726174696f6e20646964206e6044820152691bdd081cdd58d8d9595960b21b6064820152608401610347565b606061046c8484600085610476565b90505b9392505050565b6060824710156104d75760405162461bcd60e51b815260206004820152602660248201527f416464726573733a20696e73756666696369656e742062616c616e636520666f6044820152651c8818d85b1b60d21b6064820152608401610347565b6001600160a01b0385163b61052e5760405162461bcd60e51b815260206004820152601d60248201527f416464726573733a2063616c6c20746f206e6f6e2d636f6e74726163740000006044820152606401610347565b600080866001600160a01b0316858760405161054a9190610630565b60006040518083038185875af1925050503d8060008114610587576040519150601f19603f3d011682016040523d82523d6000602084013e61058c565b606091505b509150915061059c8282866105a7565b979650505050505050565b606083156105b657508161046f565b8251156105c65782518084602001fd5b8160405162461bcd60e51b8152600401610347919061064c565b6000602082840312156105f1578081fd5b8151801515811461046f578182fd5b600060208284031215610611578081fd5b5035919050565b600060208284031215610629578081fd5b5051919050565b600082516106428184602087016106a3565b9190910192915050565b602081526000825180602084015261066b8160408501602087016106a3565b601f01601f19169190910160400192915050565b6000821982111561069e57634e487b7160e01b81526011600452602481fd5b500190565b60005b838110156106be5781810151838201526020016106a6565b83811115610226575050600091015256fea264697066735822122098f72d2600baee2daa1ba830d2bae3f4d77fcdf8a5b625f17f216c0997d69aa364736f6c63430008040033",
  "linkReferences": {},
  "deployedLinkReferences": {}
}